:020000040000FA
:060000000A128A11162805
:10000800FE00030E83160313C7000408C8000A087D
:10001800C900831203137F0883160313CA000A1248
:100028008A11862E0A128A11192883160313CB0106
:10003800CC01CD01CE01CF01D001831790308400CF
:10004800D4300A168A1518220A128A1183010A1650
:100058008A155A2F83160313BB00A130A500250863
:10006800AE006F2E2530420603193B283C2848284D
:100078004208A5003B08840025088317800001304A
:10008800A5002508BB076F2EAF01B001200884002A
:100098000A168A150A200A128A112E3A031D5528B3
:1000A80056289B2830170130A5002508A007BC0159
:1000B800BD018A280A30F0000030F10083160313CE
:1000C8003D08F3003C08F2000A168A1525230A1297
:1000D8008A11710883160313BD007008BC0020083C
:1000E80084000A168A150A200A128A11D03EA50031
:1000F800FF3003180030A6002508BC070318BD0A06
:100108002608BD070130A5002508A007200884009F
:100118000A168A150A200A128A110A168A152B222B
:100128000A128A11031899289A285E28A128BC0166
:10013800BD013016A1283015BD28013083160313E0
:10014800A007FF30200784000A168A150A200A1221
:100158008A11C200A500A6012608003A0319B5288D
:100168006F2E2508003A0319812E663A03199F2835
:100178006F2E00302F05A50007303005A600250892
:1001880026040319C828C9282A2E301ECC28CD28B1
:10019800D1280630BC000030BD002E08840083132F
:1001A8000008BE00840A0008BF00840A0008C000D6
:1001B800840A0008C1000430A5002508AE074108DC
:1001C800F3004008F2003F08F1003E08F00000305C
:1001D800F7000030F6000030F5000030F4000A1691
:1001E8008A15B8260A128A110318FB28FC2819292F
:1001F800831603134108F3004008F2003F08F1009A
:100208003E08F0000A168A1520220A128A1173087D
:1002180083160313C1007208C0007108BF0070087C
:10022800BE000330AF040030B00483160313B501D9
:10023800B6014108F3004008F2003F08F1003E080B
:10024800F0000030F7000030F6000030F500003014
:10025800F4000A168A1530240A128A11031835295F
:100268003629262A031083160313400D410D823EBA
:10027800B500FF3003180030B600FF30B50703188B
:10028800B60AFF30B6070330F0000030F100360838
:10029800F3003508F2000A168A1525230A128A1176
:1002A800710883160313B6007008B5000A30F7000A
:1002B8000030F8003608FA003508F9000A168A15E1
:1002C800E5250A128A11780883160313B600770801
:1002D800B500B61F702971297729FF30B5070318B3
:1002E800B60AFF30B6073503FF3A0A128A154021CD
:1002F8000A128A1183120313410883160313BA00E2
:1003080083120313400883160313B90083120313DF
:100318003F0883160313B800831203133E0883169D
:100328000313B700410883120313A70083160313AE
:10033800400883120313A600831603133F08831291
:100348000313A500831603133E0883120313A400A6
:10035800831603133A0883120313AB00831603139F
:10036800390883120313AA0083160313380883126B
:100378000313A90083160313370883120313A80075
:100388000A128A159F240A128A1183120313270856
:1003980083160313BA008312031326088316031364
:1003A800B90083120313250883160313B8008312B8
:1003B8000313240883160313B7003A08F300390817
:1003C800F2003808F1003708F0003F30F7008030BD
:1003D800F6000030F5000030F4000A168A15B82639
:1003E8000A128A110318F929FA29032AFF308316F9
:1003F8000313B5070318B60AFF30B607262A831673
:1004080003133A08F3003908F2003808F1003708F6
:10041800F0004130F7002030F6000030F5000030E1
:10042800F4000A168A15B8260A128A11031C1D2A16
:100438001E2A262A013083160313B5070318B60AA5
:100448000030B607831603133D08803AFF0080305A
:100458007F02031D312A0D303C020318342A352A45
:100468007C2A831603133C080A168A116D230A1284
:100478008A11831203134108D5004008D4003F08AD
:10048800D3003E08D20083160313410883120313D6
:10049800D90083160313400883120313D800831668
:1004A80003133F0883120313D700831603133E0870
:1004B80083120313D6000A168A1178250A128A11A4
:1004C80083120313550883160313C1008312031301
:1004D800540883160313C0008312031353088316AA
:1004E8000313BF0083120313520883160313BE00BD
:1004F800831603133608803AFF0080307F02031DFD
:10050800872A0A30350203188A2A8B2ADC2A83169E
:1005180003134108F3004008F2003F08F1003E08C9
:10052800F0000030F7000030F6000030F500003031
:10053800F4000A168A1530240A128A110318A52A0B
:10054800A62A4E2B83160313410883120313D400E3
:1005580083160313400883120313D300831603136F
:100568003F0883120313D200831603133E08831235
:100578000313D1000A128A1506200A128A1183125F
:1005880003135408530452045104031DCC2ACD2AE2
:100598004E2B831603133608803AFF0080307F0203
:1005A800031DD82A02303502031CDB2ADC2A4E2B15
:1005B800831603133A08F3003908F2003808F100EB
:1005C8003708F0004030F7008930F6007030F50049
:1005D8005F30F4000A168A15B8260A128A11031821
:1005E800F62AF72A002BF73083160313B5070318EA
:1005F800B60AFF30B607082BF83083160313B50781
:100608000318B60AFF30B60735080A128A154021C2
:100618000A128A1183120313410883160313BA00BE
:1006280083120313400883160313B90083120313BC
:100638003F0883160313B800831203133E0883167A
:100648000313B7004108F3004008F2003F08F10027
:100658003E08F0003A08F7003908F6003808F500B7
:100668003708F4000A128A1582200A128A117308C0
:1006780083160313B4007208B3007108B20070083F
:10068800B1000030C1000030C0000030BF000030B1
:10069800BE00D22B83160313410883120313D40020
:1006A80083160313400883120313D300831603131E
:1006B8003F0883120313D200831603133E088312E4
:1006C8000313D1000A128A1506200A128A1183120E
:1006D8000313540883160313B40083120313530837
:1006E80083160313B30083120313520883160313EC
:1006F800B20083120313510883160313B1003408A0
:10070800F3003308F2003208F1003108F00000303D
:100718000A168A1119200A128A1173088312031300
:10072800E9007208E8007108E7007008E60083161F
:100738000313410883120313ED00831603134008C3
:1007480083120313EC00831603133F088312031369
:10075800EB00831603133E0883120313EA000A16FC
:100768008A15DD220A128A11831203136908831677
:100778000313C10083120313680883160313C00010
:1007880083120313670883160313BF00831203132E
:10079800660883160313BE00B501B601C201C20A7A
:1007A8004208A50001300310A50DFF3E031DD72BFD
:1007B8000310250D693E84000A168A150A200A12BC
:1007C8008A11A6000A168A150A200A128A11A70099
:1007D8000A168A150A200A128A11A8000A168A150A
:1007E8000A200A128A11A90029083402031D062CBE
:1007F80028083302031D062C27083202031D062C85
:10080800260831020318092C0A2C0B2C152C013050
:10081800A5002508C2070A304206031D142C152C12
:10082800D42B03302F05A50000303005A60025087D
:1008380026040319202C212C932C2D30A5003B08CD
:1008480084002508831780000130A5002508BB0710
:10085800932C4208A50001300310A50DFF3E031D8F
:10086800302C0310250D693E84000A168A150A20CB
:100878000A128A11F0000A168A150A200A128A1129
:10088800F1000A168A150A200A128A11F2000A16BD
:100898008A150A200A128A11F3003408F70033086F
:1008A800F6003208F5003108F4000A168A157F258B
:1008B8000A128A11730883160313BA007208B90062
:1008C8007108B8007008B7000030F3000030F2007B
:1008D8000030F1000A30F0003A08F7003908F60055
:1008E8003808F5003708F4000A168A157E240A121B
:1008F8008A11730883160313BA007208B9007108C5
:10090800B8007008B7003708303EA5003B088400DF
:100918002508831780000130A5002508BB07013092
:10092800C202420A031D992C9A2C2D2CAE2C303071
:1009380083160313A5003B0884002508831780004D
:100948000130A5002508BB07FF30B5070318B60A14
:10095800FF30B6073608803AFF0080307F02031D5B
:10096800B72C013035020318BA2CBB2C9B2C8316EC
:1009780003133D08803AFF0080307F02031DC62C18
:1009880009303C02031CC92CCA2CD12C0830831610
:100998000313A5002508C200D72C831603133C08AF
:1009A800A5002508C2004208A500A6012508BC022A
:1009B8002608031CBD03BD0242080319E42CE52CDC
:1009C800F02C2E30A5003B088400250883178000F2
:1009D8000130A5002508BB0742080A128A154021E4
:1009E8000A128A1183120313410883160313AD00F8
:1009F80083120313400883160313AC0083120313F6
:100A08003F0883160313AB00831203133E088316B3
:100A18000313AA002D0883120313AB0083160313D4
:100A28002C0883120313AA00831603132B088312BE
:100A38000313A900831603132A0883120313A800BB
:100A480083160313410883120313A70083160313A5
:100A5800400883120313A600831603133F0883126A
:100A68000313A500831603133E0883120313A4007F
:100A78000A128A159F240A128A118312031327085F
:100A8800D4002608D3002508D2002408D1000A1271
:100A98008A1506200A128A11831203135408831632
:100AA8000313B40083120313530883160313B3000C
:100AB80083120313520883160313B200831203131D
:100AC800510883160313B1000A2E4208A50001300D
:100AD8000310A50DFF3E031D6C2D0310250D693E67
:100AE80084000A168A150A200A128A11F0000A16CA
:100AF8008A150A200A128A11F1000A168A150A2094
:100B08000A128A11F2000A168A150A200A128A1194
:100B1800F3003408F7003308F6003208F50031080E
:100B2800F4000A168A157F250A128A11730883169B
:100B38000313BA007208B9007108B8007008B7004A
:100B48000030F3000030F2000030F1000A30F0000D
:100B58003A08F7003908F6003808F5003708F400B5
:100B68000A168A157E240A128A117308831603133B
:100B7800BA007208B9007108B8007008B7003708E1
:100B8800303EA5003B08840025088317800001300B
:100B9800A5002508BB074208A50001300310A50DD4
:100BA800FF3E031DD22D0310250D693E84000A1651
:100BB8008A150A200A128A11F0000A168A150A20D4
:100BC8000A128A11F1000A168A150A200A128A11D5
:100BD800F2000A168A150A200A128A11F30034084C
:100BE800F7003308F6003208F5003108F4000A1659
:100BF8008A157E240A128A11730883160313B40017
:100C08007208B3007108B2007008B1000130C20266
:100C1800420A031D102E112E692D232E3030A500F7
:100C28003B0884002508831780000130A5002508AB
:100C3800BB07FF30BC070318BD0AFF30BD073C08DF
:100C48003D04031D282E292E122E6F2E3C083D042C
:100C5800031D2F2E302E3E2E340833043204310467
:100C6800031D372E382E3E2E0130BC070318BD0A4F
:100C78000030BD073D08803A803C031D452E3C08E6
:100C880042020318482E492E4A2E592E8316031362
:100C98003D08803AA50080302502031D552E4208E4
:100CA8003C020318582E592E592E0330831603136D
:100CB8002F05A50000303005A600250826040319D5
:100CC800662E672E6F2E2D30A5003B088400250860
:100CD8008317800043280130A007FF3020078400D5
:100CE8000A168A150A200A128A11A5002508C200C8
:100CF8004208031D802E812E36283B088400831766
:100D080080010800831203130C1F8B2E8C2EB52F25
:100D18008316031712081304031D932E942E272FEE
:100D2800831203131E0883160313C3004308D0005D
:100D3800831603179001910101309200003093004F
:100D4800433083120313C1007F30C0000030BF005E
:100D58000030BE004030A700A030A6000030A5003B
:100D68000030A400831603135008C300C401C50152
:100D7800C6014608F3004508F2004408F10043089C
:100D8800F00001300A168A1119200A128A11730814
:100D980083120313AB007208AA007108A900700837
:100DA800A8000A128A159F240A128A1183120313B3
:100DB8002708C5002608C4002508C3002408C20067
:100DC8000A168A1190210A128A1183120313410804
:100DD80083160313CE0083120313400883160313EC
:100DE800CD00831203133F0883160313CC0083122C
:100DF80003133E0883160313CB00F401F40A0230F0
:100E08000A168A1501230A128A11913083160313D0
:100E1800C3004308A0004E08A4004D08A3004C08D6
:100E2800A2004B08A10094300A128A112E200A123F
:100E38008A119430F3000130F4000A168A15AA23A7
:100E48000A128A11B52F12031304031D2C2F2D2FFC
:100E5800B52F831203131E0883160313C300430818
:100E6800CF0083160317900191019201930143303B
:100E780083120313C1007F30C0000030BF00003070
:100E8800BE004030A700A030A6000030A50000300A
:100E9800A400831603134F08C300C401C501C6018B
:100EA8004608F3004508F2004408F1004308F00042
:100EB80001300A168A1119200A128A11730883123E
:100EC8000313AB007208AA007108A9007008A800F3
:100ED8000A128A159F240A128A11831203132708FB
:100EE800C5002608C4002508C3002408C2000A1645
:100EF8008A1190210A128A1183120313410883165A
:100F08000313CE0083120313400883160313CD0086
:100F1800831203133F0883160313CC0083120313B1
:100F28003E0883160313CB00F401F40A02300A16B4
:100F38008A1501230A128A11913083160313C300FC
:100F48004308A0004E08A4004D08A3004C08A200C6
:100F58004B08A10094300A128A112E200A128A1115
:100F68001D2F831203130C13831603134A088312CD
:100F78000313FF008316031349088A0048088400F6
:100F8800470E8300FE0E7E0E0900F800F401F501FD
:100F98007008F200F3017208F6007308F700781C75
:100FA800D62FD72FDD2F7608F4070318F50A770810
:100FB800F50701300310F60DF70DFF3E031DDE2F78
:100FC8000310F80C7808031DEA2FEB2FD32F7508B0
:100FD800F1007408F000080000300A168A15BD22D6
:100FE8000A128A1101300A168A15BD220A128A11BC
:020FF8000800EF
:10100000F000700883120313880008000310831295
:101010000313530D540DD5005508DB005B08031D69
:10102000122813281C280030D4000030D3000030D0
:10103000D2000030D10081285108D5005208D600D6
:101040005308D7005408D8001F300310D80CD70C11
:10105000D60CD50CFF3E031D25285508D90059088C
:10106000DA00D317FF30D105FF30D205FF30D305AA
:101070000030D4059630DB02DB1F3F2840285A2879
:101080005B08803A973E03184628472848281328CB
:1010900001300310D40CD30CD20CD10CFF3E031D35
:1010A00049280130D5005508DB07031D5828592869
:1010B0004828712820305B02031C5F2860286C28B8
:1010C00013280130D5000310D10DD20DD30DD40D4E
:1010D000D50B63280130DB025B08031D70287128E3
:1010E00061285A080319752876288128D109D20960
:1010F000D309D409D10A0319D20A0319D30A03194F
:10110000D40A08000310720D730DF80078088312DA
:101110000313A5002508031D8E288F28982800306A
:10112000F3000030F2000030F1000030F0003F2901
:101130000310760D770DF8007808A4002408031D2D
:10114000A228A328A4288F28F217FF30F005FF302B
:10115000F105FF30F2050030F305F617FF30F40516
:10116000FF30F505FF30F6050030F7050030A3002D
:101170000030A2000030A1000030A0007F30A502A6
:10118000A0302407F8007808A5022030F80078087D
:10119000A4000130F8000310A00DA10DA20DA30DB5
:1011A000F80BCB2877087302031DE028760872023B
:1011B000031DE02875087102031DE0287408700201
:1011C000031CE328E428F3287408F0027508031CC4
:1011D000750FF1027608031C760FF2027708031CE4
:1011E000770FF30220140130F8000310F00DF10D19
:1011F000F20DF30DF80BF5280130A402031D0129AF
:101200000229C928A51F0529062920292508803A71
:101210009F3E03180C290D290E298F280130031039
:10122000A30CA20CA10CA00CFF3E031D0F29013042
:10123000F8007808A507031D1E291F290E29372944
:1012400020302502031C2529262932298F28013028
:10125000F8000310A00DA10DA20DA30DF80B292974
:101260000130A5022508031D36293729272923081F
:10127000F3002208F2002108F1002008F000080025
:1012800083120313D000D01F46294729F42AD0091E
:10129000D00A5008803A123E031C4F295029382AA0
:1012A0000A30F7000030F8005008F200F301F21B9A
:1012B000F3036430F0000030F1000A168A15262589
:1012C0000A128A157108FA007008F9000A168A15C0
:1012D000E5250A128A15770883120313C20001302C
:1012E0000310C20DFF3E031D70290310420D593E2D
:1012F00084000A168A150A200A128A15C3000A16E3
:101300008A150A200A128A15C4000A168A150A20AC
:101310000A128A15C5000A168A150A200A128A15A9
:10132000C6004608A7004508A6004408A5004308D3
:10133000A4006430F7000030F8005008F900FA010A
:10134000F91BFA030A168A15E5250A128A15770889
:1013500083120313C70001300310C70DFF3E031DA6
:10136000AC290310470D7D3E84000A168A150A2019
:101370000A128A15C8000A168A150A200A128A1546
:10138000C9000A168A150A200A128A15CA000A1606
:101390008A150A200A128A15CB004B08AB004A08AE
:1013A000AA004908A9004808A8000A128A159F2423
:1013B0000A128A15831203132708CF002608CE00CD
:1013C0002508CD002408CC000A30F0000030F100E0
:1013D0005008F200F301F21BF3030A168A152625C2
:1013E0000A128A15700883120313C2000130031019
:1013F000C20DFF3E031DF7290310420D353E840048
:101400000A168A150A200A128A15C3000A168A15B6
:101410000A200A128A15C4000A168A150A200A121E
:101420008A15C5000A168A150A200A128A15C600EE
:101430004608A7004508A6004408A5004308A400E4
:101440004F08AB004E08AA004D08A9004C08A800A0
:101450000A128A159F240A128A1583120313270879
:10146000C1002608C0002508BF002408BE009E2C2D
:101470005008803A753E031C3E2A3F2AC72A0A308C
:10148000F0000030F1005008F200F301F21BF3030A
:101490000A168A1526250A128A1570088312031364
:1014A000C20001300310C20DFF3E031D522A03107B
:1014B000420D353E84000A168A150A200A128A1542
:1014C000C3000A168A150A200A128A15C4000A16D1
:1014D0008A150A200A128A15C5000A168A150A20DA
:1014E0000A128A15C6004608A7004508A600440847
:1014F000A5004308A4000A30F7000030F8005008A7
:10150000F900FA01F91BFA030A168A15E5250A12F1
:101510008A15770883120313C70001300310C70D23
:10152000FF3E031D8E2A0310470D593E84000A1604
:101530008A150A200A128A15C8000A168A150A2076
:101540000A128A15C9000A168A150A200A128A1573
:10155000CA000A168A150A200A128A15CB004B08FF
:10156000AB004A08AA004908A9004808A8000A12C6
:101570008A159F240A128A15831203132708C100B3
:101580002608C0002508BF002408BE009E2C500875
:10159000C20001300310C20DFF3E031DCA2A031012
:1015A000420D353E84000A168A150A200A128A1551
:1015B000C3000A168A150A200A128A15C4000A16E0
:1015C0008A150A200A128A15C5000A168A150A20E9
:1015D0000A128A15C6004608C1004508C000440822
:1015E000BF004308BE009E2C5008803A123E031CE8
:1015F000FA2AFB2AE32B0A30F7000030F8005008E3
:10160000F200F301F21BF3036430F0000030F1004C
:101610000A168A1526250A128A157108FA0070081A
:10162000F9000A168A15E5250A128A157708831229
:101630000313C20001300310C20DFF3E031D1B2B1C
:101640000310420D253E84000A168A150A200A124C
:101650008A15C3000A168A150A200A128A15C400C0
:101660000A168A150A200A128A15C5000A168A1552
:101670000A200A128A15C6004608A7004508A600D7
:101680004408A5004308A4006430F7000030F800C7
:101690005008F900FA01F91BFA030A168A15E52524
:1016A0000A128A15770883120313C700013003104A
:1016B000C70DFF3E031D572B0310470D493E840005
:1016C0000A168A150A200A128A15C8000A168A15EF
:1016D0000A200A128A15C9000A168A150A200A1257
:1016E0008A15CA000A168A150A200A128A15CB0022
:1016F0004B08AB004A08AA004908A9004808A800FE
:101700000A128A159F240A128A15831203132708C6
:10171000CF002608CE002508CD002408CC000A30D2
:10172000F0000030F1005008F200F301F21BF30367
:101730000A168A1526250A128A15700883120313C1
:10174000C20001300310C20DFF3E031DA22B031087
:10175000420D013E84000A168A150A200A128A15D3
:10176000C3000A168A150A200A128A15C4000A162E
:101770008A150A200A128A15C5000A168A150A2037
:101780000A128A15C6004608A7004508A6004408A4
:10179000A5004308A4004F08AB004E08AA004D085E
:1017A000A9004C08A8000A128A159F240A128A155B
:1017B000831203132708C1002608C0002508BF00B4
:1017C0002408BE009E2C5008803A753E031CE92B6D
:1017D000EA2B722C0A30F0000030F1005008F200C1
:1017E000F301F21BF3030A168A1526250A128A153D
:1017F000700883120313C20001300310C20DFF3EB4
:10180000031DFD2B0310420D013E84000A168A15AC
:101810000A200A128A15C3000A168A150A200A121B
:101820008A15C4000A168A150A200A128A15C500EC
:101830000A168A150A200A128A15C6004608A70049
:101840004508A6004408A5004308A4000A30F70094
:101850000030F8005008F900FA01F91BFA030A16E3
:101860008A15E5250A128A15770883120313C70023
:1018700001300310C70DFF3E031D392C0310470D27
:10188000253E84000A168A150A200A128A15C80005
:101890000A168A150A200A128A15C9000A168A151C
:1018A0000A200A128A15CA000A168A150A200A1284
:1018B0008A15CB004B08AB004A08AA004908A900CA
:1018C0004808A8000A128A159F240A128A15831252
:1018D00003132708C1002608C0002508BF002408FC
:1018E000BE009E2C5008C20001300310C20DFF3E06
:1018F000031D752C0310420D013E84000A168A1543
:101900000A200A128A15C3000A168A150A200A122A
:101910008A15C4000A168A150A200A128A15C500FB
:101920000A168A150A200A128A15C6004608C1003E
:101930004508C0004408BF004308BE0008008312E9
:10194000031327088039AC002C08B1002708AC002D
:101950002C07AD002D08B700A61FAF2CB02CB12C62
:10196000371437080319B52CB62CC52C370A031DBC
:10197000BA2CBB2CC32C0030A7000030A6000030CE
:10198000A5000030A400A617CD2C0030A700003021
:10199000A6000030A5000030A4002B088039AC0060
:1019A0002C08B1062B08AC002C07AD002D08B600A2
:1019B000AA1FDB2CDC2CDD2C361436080319E12C95
:1019C000E22CF12C360A031DE62CE72CEF2C00301C
:1019D000AB000030AA000030A9000030A800AA1710
:1019E000F92C0030AB000030AA000030A900003014
:1019F000A80036080319FD2CFE2C032D3708031D03
:101A0000022D032D0C2D0030A7000030A600003061
:101A1000A5000030A400FF2F2408AC002C08F00023
:101A20002A080A128A11C9270A128A157108831214
:101A30000313BD007008BC003C08AC00AD01AE0152
:101A4000AF012F08B5002E08B4002D08B3002C08F4
:101A5000B2003D08AC00AD01AE01AF012F08BB00E4
:101A60002E08BA002D08B9002C08B8002508AC00D3
:101A70002C08F00029080A128A11C9270A128A15AF
:101A8000710883120313BD007008BC003C08AC0051
:101A9000AD01AE01AF012C08B2072D0803110318E8
:101AA000013E0319542DB3072E0803110318013EFC
:101AB00003195B2DB4072F0803110318013E031906
:101AC000622DB5073D08AC00AD01AE01AF012C0899
:101AD000B8072D0803110318013E0319702DB9072B
:101AE0002E0803110318013E0319772DBA072F089A
:101AF00003110318013E03197E2DBB072608AC0015
:101B00002C08F00028080A128A11C9270A128A151F
:101B1000710883120313BD007008BC003C08AC00C0
:101B2000AD01AE01AF012C08B2072D080311031857
:101B3000013E03199C2DB3072E0803110318013E23
:101B40000319A32DB4072F0803110318013E03192D
:101B5000AA2DB5073D08AC00AD01AE01AF012C08C0
:101B6000B8072D0803110318013E0319B82DB90752
:101B70002E0803110318013E0319BF2DBA072F08C1
:101B800003110318013E0319C62DBB070830AC0032
:101B90000310B20DB30DB40DB50DAC0BC82D250857
:101BA000AC002C08F00028080A128A11C9270A1272
:101BB0008A15710883120313BD007008BC003C082D
:101BC000AC003D08AD00AE01AF012C08B2072D08F6
:101BD00003110318013E0319EE2DB3072E0803115C
:101BE0000318013E0319F52DB4072F08031103183C
:101BF000013E0319FC2DB5072408AC002C08F000A9
:101C000029080A128A11C9270A128A157108831233
:101C10000313BD007008BC003C08AC003D08AD00DB
:101C2000AE01AF012C08B2072D0803110318013EC5
:101C300003191B2EB3072E0803110318013E0319C5
:101C4000222EB4072F0803110318013E0319292E71
:101C5000B5070830AC000310B20DB30DB40DB50DCF
:101C6000AC0B2B2E2408AC002C08F00028080A121C
:101C70008A11C9270A128A15710883120313BD003D
:101C80007008BC003C08AC003D08AD00AE01AF01DF
:101C90002C08B2072D0803110318013E0319512E19
:101CA000B3072E0803110318013E0319582EB40779
:101CB0002F0803110318013E03195F2EB5072508ED
:101CC000AC002C08F0002A080A128A11C9270A124F
:101CD0008A15710883120313BD007008BC003C080C
:101CE000AC003D08AD00AE01AF012C08B8072D08CF
:101CF00003110318013E03197E2EB9072E080311A4
:101D00000318013E0319852EBA072F080311031883
:101D1000013E03198C2EBB072608AC002C08F000EE
:101D200029080A128A11C9270A128A157108831212
:101D30000313BD007008BC003C08AC003D08AD00BA
:101D4000AE01AF012C08B8072D0803110318013E9E
:101D50000319AB2EB9072E0803110318013E03190E
:101D6000B22EBA072F0803110318013E0319B92E2A
:101D7000BB072608AC002C08F0002A080A128A11BA
:101D8000C9270A128A15710883120313BD0070084F
:101D9000BC003C08AC003D08AD00AE01AF0108300E
:101DA0000310AC0DAD0DAE0DAF0DFF3E031DD02EDB
:101DB0002C08B8072D0803110318013E0319E12E62
:101DC000B9072E0803110318013E0319E82EBA07BC
:101DD0002F0803110318013E0319EF2EBB07320829
:101DE000AC003308AD003408AE003508AF00183041
:101DF0000310AF0CAE0CAD0CAC0CFF3E031DF82E67
:101E00002C08B8072D0803110318013E0319092FE8
:101E1000B9072E0803110318013E0319102FBA0742
:101E20002F0803110318013E0319172FBB070830B1
:101E3000AC000310B20DB30DB40DB50DAC0B192FE2
:101E400037083607AC00AD01AD0D2C08823EBC0052
:101E50002D080318013EFF3EBD004B2F0130AC00A2
:101E60000310B80DB90DBA0DBB0DAC0B302FB51F5B
:101E70003A2F3B2F3C2F38140130AC000310B20D29
:101E8000B30DB40DB50DAC0B3E2FFF30BC070318DE
:101E9000BD0AFF30BD07BA1F4E2F4F2F2E2FB601A0
:101EA000B51F532F542F702FFF303205AC00FF3079
:101EB0003305AD00FF303405AE007F303505AF008F
:101EC0002F082E042D042C040319672F682F6B2F65
:101ED000B601B60A702F381C6E2F6F2F702F682F27
:101EE00036080319742F752FA62F0130B80700305C
:101EF00003180130B907003003180130BA07003069
:101F000003180130BB073B1C862F872FA62F3808EC
:101F1000AC003908AD003A08AE003B08AF00013014
:101F2000B0002F0DAF0CAE0CAD0CAC0CB00B912F64
:101F30002F08BB002E08BA002D08B9002C08B800E5
:101F40000130BC070318BD0A0030BD073D08803AC8
:101F5000FF0080307F02031DAF2FFF303C02031CC7
:101F6000B22FB32FBE2F7F3083120313BB008030FC
:101F7000BA000030B9000030B800F32F8312031309
:101F80003D08803AFF0080307F02031DC92F0130D9
:101F90003C020318CC2FCD2FD92F0030831203130E
:101FA000BB000030BA000030B9000030B800B10109
:101FB000F32F831203133C08AC002C08B700FF304A
:101FC000B805FF30B9057F30BA050030BB05371CB6
:101FD000EA2FEB2FEC2FBA173708AC0003102C0CAC
:101FE000AD002D08BB003108AC002C08BB043B0839
:101FF000A7003A08A6003908A5003808A400080080
:10200600F20083120313091472080A128A150020BB
:102016000A168A118312031389141A30F100F10B80
:10202600122800008312031389100800F8007808AC
:1020360003191E281F283328F31F22282328332894
:102046007009FA007109FB007209FC007309FD00B2
:10205600FA0A0319FB0A0319FC0A0319FD0A3B28AD
:102066007308FD007208FC007108FB007008FA0096
:102076007308720471047004031D422843284C2817
:102086000030F3000030F2000030F1000030F000C4
:10209600D2289630F4007408F9005E280130F40066
:1020A6007408F90701300310FD0CFC0CFB0CFA0C4C
:1020B600FF3E031D5628FE307D05031D6328642858
:1020C600512880280130F4007408F9070130FA0716
:1020D600003003180130FB07003003180130FC07FD
:1020E600003003180130FD0701300310FD0CFC0C15
:1020F600FB0CFA0CFF3E031D7828FF307D05031DFF
:1021060085288628652892280130F9020130F400D6
:102116000310FA0DFB0DFC0DFD0DF40B8B28FC1BBB
:10212600952896289C280230790203189B289C281B
:10213600872879189F28A028A828FF30FA05FF309D
:10214600FB057F30FC05FF30FD050310F90C79080F
:10215600F400F501F601F70118300310F40DF50D42
:10216600F60DF70DFF3E031DB0287408FA04750836
:10217600FB047608FC047708FD0478080319C428D4
:10218600C528CA28F31FC828C928CA28FD177D08EC
:10219600F3007C08F2007B08F1007A08F0000800E2
:1021A6007008F8007108F9007208FA000310790D3A
:1021B6007A0DFB007B0883120313A5002508031D77
:1021C600E528E628EF280030F3000030F200003062
:1021D600F1000030F0008F297408F8007508F90046
:1021E6007608FA000310790D7A0DFB007B08A4002F
:1021F6002408031DFF2800290129E628F117FF30CE
:10220600F005FF30F1050030F205F517FF30F40553
:10221600FF30F5050030F6050030A3000030A200BF
:102226000030A1000030A0007F30A50298302407BE
:10223600F8007808A5021830F8007808A4000130E4
:10224600F8000310A00DA10DA20DA30DF80B242973
:1022560076087202031D352975087102031D35299A
:1022660074087002031C3829392944297408F002BD
:102276007508031C750FF1027608031C760AF20234
:10228600201401300310F00DF10DF20DFF3E031D79
:1022960045290130A402031D512952292229A51FCF
:1022A6005529562970292508803A973E03185C2936
:1022B6005D295E29E62801300310A30CA20CA10CAF
:1022C600A00CFF3E031D5F290130F8007808A50722
:1022D600031D6E296F295E29872918302502031CE4
:1022E600752976298229E6280130F8000310A00D09
:1022F600A10DA20DA30DF80B79290130A502250821
:10230600031D8629872977292308F3002208F2006E
:102316002108F1002008F000080083120313450885
:102326008039C6004608CF004508C6004607C700E4
:102336004708D600C41FA029A129A2295614560869
:102346000319A629A729B729560A031DAB29AC29C3
:10235600B4290030C5000030C4000030C30000308E
:10236600C200C417C501BF290030C5000030C40033
:102376000030C3000030C20041088039C60046085C
:10238600CF064108C6004607C7004708D700C01F4A
:10239600CD29CE29CF29571457080319D329D42973
:1023A600E429570A031DD829D929E1290030C1009B
:1023B6000030C0000030BF000030BE00C017C101B1
:1023C600EC290030C1000030C0000030BF000030F2
:1023D600BE00410840043F043E04031DF329F429CE
:1023E6000D2A0030C5000030C4000030C3000030A4
:1023F600C2008030C4047F30C5044F08C6004608BA
:10240600C5044508C1004408C0004308BF0042088F
:10241600BE006C2B5608031D112A122A1B2A0030F7
:10242600C1000030C0000030BF000030BE006C2B81
:102436005608C600C7014708C90057084602C80023
:10244600031CC90348087F3ED00049080318013E13
:10245600003ED1004508CE004408CD004308CC001C
:102466004208CB000030C5000030C4000030C30075
:102476000030C2000030D5000030D4000030D30058
:102486000030D200D701912A570803194B2A4C2A4B
:102496006C2A0130C6000310CB0DCC0DCD0DCE0D30
:1024A600C60B4E2A0130C6000310C20DC30DC40D63
:1024B600C50DC60B572AD51F612A622A632A421404
:1024C6000130C6000310D20DD30DD40DD50DC60BA9
:1024D600652A41084E02031D7A2A40084D02031D53
:1024E6007A2A3F084C02031D7A2A3E084B02031C37
:1024F6007D2A7E2A8D2A55173E08CB023F08031CEB
:102506003F0FCC024008031C400FCD024108031CBC
:10251600410FCE020130C6004608D7071A305702CF
:10252600031C962A972A472A4E084D044C044B044E
:1025360003199E2A9F2ABE2A5214BE2A0130C600BB
:102546000310C20DC30DC40DC50DC60BA32AD51F9E
:10255600AD2AAE2AAF2A42140130C6000310D20DAE
:10256600D30DD40DD50DC60BB12AFF30D0070318F5
:10257600D10AFF30D107C41FC12AC22AA12AD70116
:10258600D51FC62AC72AE32AFF305205C600FF30E8
:102596005305C700FF305405C8007F305505C900F4
:1025A60049084804470446040319DA2ADB2ADE2AC6
:1025B600D701D70AE32A421CE12AE22AE32ADB2AC8
:1025C60057080319E72AE82A192B0130C2070030F9
:1025D60003180130C307003003180130C407003068
:1025E60003180130C507451CF92AFA2A192B420897
:1025F600C6004308C7004408C8004508C9000130A2
:10260600CA00490DC90CC80CC70CC60CCA0B042B52
:102616004908C5004808C4004708C3004608C20068
:102626000130D0070318D10A0030D1075108803A8B
:10263600FF0080307F02031D222BFF305002031C57
:10264600252B262B342BFF3083120313D0000030AA
:10265600D1000030C5000030C4000030C300003097
:10266600C200831203135108803AFF0080307F02B4
:10267600031D3F2B013050020318422B432B502BD6
:1026860083120313D001D1010030C5000030C4000D
:102696000030C3000030C200CF018312031350087C
:1026A600C6004608D600561C592B5A2B5C2BC4175D
:1026B600602B7F30C6004608C4055608C6000310C6
:1026C600460CC7004708C5004F08C6004608C504A3
:1026D600042A080083120313D1006E305102031C32
:1026E600752B762B832C3F30A7000030A6000030D8
:1026F600A5000030A4006430F6000030F700510851
:10270600C200C3014208F8004308F9000A168A15F8
:10271600EC230A168A11760883120313C4000130CB
:102726000310C40DFF3E031D932B0310440D7D3E85
:1027360084000A168A150A200A168A11C5000A1686
:102746008A150A200A168A11C6000A168A150A2050
:102756000A168A11C7000A168A150A200A168A114D
:10276600C8004808AB004708AA004608A900450863
:10277600A8000A128A159F240A168A1183120313C7
:102786002708D0002608CF002508CE002408CD0053
:102796000A30F6000030F7005108C200C3014208B3
:1027A600F2004308F3006430F0000030F1000A162E
:1027B6008A1570230A168A117108F9007008F80044
:1027C6000A168A15EC230A168A1176088312031351
:1027D600C40001300310C40DFF3E031DED2B031092
:1027E600440D593E84000A168A150A200A168A11D3
:1027F600C5000A168A150A200A168A11C6000A1684
:102806008A150A200A168A11C7000A168A150A208E
:102816000A168A11C8004808A7004708A6004608F5
:10282600A5004508A4005008AB004F08AA004E08B2
:10283600A9004D08A8000A128A159F240A168A11B3
:10284600831203132708CC002608CB002508CA00EC
:102856002408C9000A30F0000030F1005108C20017
:10286600C3014208F2004308F3000A168A157023D2
:102876000A168A11700883120313C400013003106C
:10288600C40DFF3E031D422C0310440D353E84004B
:102896000A168A150A200A168A11C5000A168A150A
:1028A6000A200A168A11C6000A168A150A200A166E
:1028B6008A11C7000A168A150A200A168A11C80044
:1028C6004808A7004708A6004608A5004508A40032
:1028D6004C08AB004B08AA004A08A9004908A80002
:1028E6000A128A159F240A168A11831203132708CF
:1028F600C1002608C0002508BF002408BE00772DA9
:102906000B305102031C882C892C342D3F30A70034
:102916000030A6000030A5000030A4000A30F60002
:102926000030F7005108C200C3014208F80043080E
:10293600F9000A168A15EC230A168A1176088312FC
:102946000313C40001300310C40DFF3E031DA62C63
:102956000310440D593E84000A168A150A200A16E9
:102966008A11C5000A168A150A200A168A11C60097
:102976000A168A150A200A168A11C7000A168A1527
:102986000A200A168A11C8004808AB004708AA00A0
:102996004608A9004508A8000A128A159F240A16A7
:1029A6008A11831203132708D0002608CF002508B2
:1029B600CE002408CD000A30F0000030F1005108A6
:1029C600C200C3014208F2004308F3000A168A1542
:1029D60070230A168A11700883120313C40001308B
:1029E6000310C40DFF3E031DF32C0310440D353EAA
:1029F60084000A168A150A200A168A11C5000A16C4
:102A06008A150A200A168A11C6000A168A150A208D
:102A16000A168A11C7000A168A150A200A168A118A
:102A2600C8004808A7004708A6004608A5004508AC
:102A3600A4005008AB004F08AA004E08A9004D0894
:102A4600A8000A128A159F240A168A1183120313F4
:102A56002708C1002608C0002508BF002408BE00BC
:102A6600772D3F30A7000030A6000030A5000030CB
:102A7600A4005108C20001300310C20DFF3E031D21
:102A86003F2D0310420D353E84000A168A150A2092
:102A96000A168A11C3000A168A150A200A168A110E
:102AA600C4000A168A150A200A168A11C5000A16D3
:102AB6008A150A200A168A11C6004608AB00450880
:102AC600AA004408A9004308A8000A128A159F24F0
:102AD6000A168A11831203132708C1002608C000AC
:102AE6002508BF002408BE000800831203135508FA
:102AF6008039DA005A08E2005508DA005A07DB0086
:102B06005B08E400D41F882D892D8A2D641464087F
:102B160003198E2D8F2D9F2D640A031D932D942D41
:102B26009C2D0030D5000030D4000030D30000309A
:102B3600D200D417D501A72D0030D5000030D4001F
:102B46000030D3000030D20059088039DA005A0824
:102B5600E300630862060319B12DB22DB32D621787
:102B66005908DA005A07DB005B08E300D81FBC2DC2
:102B7600BD2DBE2D631463080319C22DC32DD32D9D
:102B8600630A031DC72DC82DD02D0030D900003093
:102B9600D8000030D7000030D600D817D901DB2D79
:102BA6000030D9000030D8000030D7000030D60001
:102BB600640863020318E02DE12D252E621FE42D23
:102BC600E52DE92D8030DA005A08E2066408DA00BD
:102BD6005A08E5006308DA005A08E4006508DA00D6
:102BE6005A08E3005208DA005A08E5005608DA00E7
:102BF6005A08D2006508DA005A08D6005308DA00E7
:102C06005A08E5005708DA005A08D3006508DA00C2
:102C16005A08D7005408DA005A08E5005808DA00BE
:102C26005A08D4006508DA005A08D8005508DA00B0
:102C36005A08E5005908DA005A08D5006508DA008E
:102C46005A08D900E5016308DA00DB015B08DD00FC
:102C560064085A02DC00031CDD035D08803AFF00AD
:102C660080307F02031D392E1A305C02031C3C2E75
:102C76003D2E7A2E8312031355085404530452042E
:102C8600031D462E482E0130492E0030DA005A0820
:102C9600E5000030D5000030D4000030D30000300D
:102CA600D2006308DA005A08E400822E651C5C2E06
:102CB6005D2E662E6508DA0003105A0C0138DB001B
:102CC6005B08E500682E0310E50C521C6B2E6C2E7B
:102CD6006D2EE5170130DA00550DD50CD40CD30C4A
:102CE600D20CDA0B6F2E0130DA005A08E407831291
:102CF600031363086402031C812E822E592E621B65
:102D0600852E862ED12E6408031D8A2E8B2E942E98
:102D16000030D5000030D4000030D3000030D2009F
:102D2600FF2F5608D207570803110318013E03194F
:102D36009D2ED307580803110318013E0319A42E2C
:102D4600D407590803110318013E0319AB2ED50702
:102D5600551CAE2EAF2E852F651CB22EB32EBC2E63
:102D66006508DA0003105A0C0138DB005B08E50041
:102D7600BE2E0310E50C521CC12EC22EC32EE51723
:102D86000130DA00550DD50CD40CD30CD20CDA0B6D
:102D9600C52E0130DA005A08E407852F5508803A17
:102DA600FF005908803A7F02031DE32E580854029B
:102DB600031DE32E57085302031DE32E5608520245
:102DC6000318E62EE72E3F2FFF30DA00FF30DB0038
:102DD600FF30DC00FF30DD005608DE005708DF005C
:102DE6005808E0005908E1005208DE025308031CA7
:102DF600530FFE2EFF2EDF025408031C540F042F20
:102E0600052FE0025508031C550F0A2F0B2FE10270
:102E16005E08DA075F0803185F0F122F132FDB0710
:102E260060080318600F182F192FDC0761080318B4
:102E3600610ADD075D08D5005C08D4005B08D30095
:102E46005A08D2008030DA005A08E206E509E50A97
:102E56006508031D2F2F302F4D2F0130D20700306C
:102E660003180130D307003003180130D4070030AF
:102E760003180130D5074D2F5608D2025708031CF8
:102E8600570FD3025808031C580FD4025908031CC5
:102E9600590FD5025508540453045204031D542FE8
:102EA600552F812F6508031D592F5A2F812F00306A
:102EB600D5000030D4000030D3000030D200FF2F00
:102EC6000130DA000310D20DD30DD40DD50DDA0B77
:102ED600652FE51F6F2F702F712F5214651C742FED
:102EE600752F782F0314E50D7A2F0310E50D64086E
:102EF60003197E2F7F2F812F0130E402D41F842FE8
:102F0600852F632FE301E51F892F8A2F982F6508E8
:102F16007F3903198F2F902F932FE301E30A982F00
:102F2600521C962F972F982F902F630803199C2FCA
:102F36009D2FD12F0130D207003003180130D3075F
:102F4600003003180130D407003003180130D507CC
:102F5600551CAE2FAF2FD12F5208DA005308DB00D5
:102F66005408DC005508DD000130DE005D0DDD0C87
:102F7600DC0CDB0CDA0CDE0BB92F5D08D5005C0827
:102F8600D4005B08D3005A08D200640A0319CC2F78
:102F9600CD2FD12F0130DA005A08E407640A03194D
:102FA600D52FD62FDB2F6408031DDA2FDB2FE92F51
:102FB6000030D5000030D4000030D3000030D200FD
:102FC6006408031DE72FE82FE92FE201641CEC2FAC
:102FD600ED2FEF2FD417F32F7F30DA005A08D405E0
:102FE6006408DA0003105A0CDB005B08D500E21F08
:102FF600FD2FFE2FFF2FD5170800FF1B0A2883136E
:103006007F1883170008840A0319FF0A080018307E
:103016008A000408840A82070034003400348034AD
:103026003F34003400342034413400340034C83492
:103036004234003400347A344434003440341C348E
:10304600463400345034C3344734003424347434A2
:1030560049348034963418344B342034BC34BE346E
:103066004C3428346B346E344E34F934023415340F
:103076005034EC347834AD346034CA34F2344934E4
:1030860071340034003480343F34CD34CC34CC3405
:103096003D340A34D73423343C346F341234833409
:1030A6003A341734B734D1343834AC34C5342734D1
:1030B6003734BD343734863435349534BF34D6345A
:1030C60033347734CC342B3432345F34703489342F
:1030D6003034FF34E634DB342E340834E5343C3403
:1030E6001E3460344234A2340D34013400340034CA
:1030F60000340A34003400340034643400340034BC
:103106000034E834033400340034103427340034F7
:103116000034A034863401340034403442340F3451
:10312600003480349634983400340034E134F53475
:1031360005340034CA349A343B3425342E343234C0
:1031460066340034533431343A3400345334323430
:0C3156003A340034533433343A3400343B
:1034200083160317D400540883120313880008007E
:1034300064008001840A0406031900340406192A72
:1034400073087204710470040319272A282A2A2A8F
:103450008030F3060800F100F0013A3071020318E1
:10346000322A332A3B2A30307102031C382A392A87
:103470003B2AF001F00A700C0800831203131F1797
:103480009F13831603139F01C330831203139F05F9
:103490001F14831603130C17831203130C13080055
:1034A000F30083120313091073080A128A1500200F
:1034B0000A168A158312031389140B30F200623046
:1034C000F100F10B612AF20B612A00008312031351
:1034D000891008008316031754085504031D712A28
:1034E000722A762AC330831203139F0583160317AB
:1034F00054035504031D7D2A7E2A842A8312031354
:103500001F08C33904389F00080083160317D6002C
:103510008312031309148316031756080A168A1513
:1035200010220A168A158312031389141930831680
:103530000317D500D50B9A2A9D2A831203138910ED
:1035400008008B170B1783160317880189010814CD
:103550008814831603138701860188018901850178
:1035600005148514831203138801860187018901DC
:103570008316031792019301080083160317D700DF
:103580008312031309108316031757080A168A15A6
:1035900010220A168A158312031389140B3083161E
:1035A0000317D6006130D500D50BD42AD60BD42A08
:1035B000D92A831203138910080080308312031361
:1035C000E9066D08D5006C08D4006B08D3006A08C2
:1035D000D2006908D9006808D8006708D7006608D3
:1035E000D6000A168A1178250A168A158312031343
:1035F0005508E9005408E8005308E7005208E600BF
:103600000800F6007603031D062B072B132B740806
:103610007F3EF5007508F70077080A168A155022D4
:103620000A168A15242B02307606031D182B192B37
:10363000242B7408BF3EF5007508F70077080A16BA
:103640008A1550220A168A150800F401F501701C2B
:103650002A2B2B2B312B7208F4070318F50A730859
:10366000F50701300310F20DF30DFF3E031D322B61
:1036700001300310F10CF00CFF3E031D392B7008D4
:103680007104031D442B452B272B7508F10074088A
:10369000F000080083160317DA005A03031D512BAC
:1036A000522B5E2B58087F3ED9005908DB005B087F
:1036B0000A168A15BD220A168A156F2B02305A0681
:1036C000031D632B642B6F2B5808BF3ED90059088C
:1036D000DB005B080A168A15BD220A168A15080047
:1036E000700871040319752B762BA52BF501F50ACB
:1036F000842B01300310F00DF10DFF3E031D7A2BDA
:103700000130F4007408F507F11F872B882B792B03
:1037100071087302031D8E2B70087202031C912B1B
:10372000922B982B7008F2027108031CF303F3022A
:1037300001300310F10CF00CFF3E031D992B0130FA
:10374000F502031DA42BA52B882B7308F10072082A
:10375000F0000800F801F901CF2B78087307F60094
:103760007408F5000318F50AF81FB72BF503750860
:10377000F700770883120313FF00760884000A1607
:103780008A1500200A168A150A168A1103200A16BD
:103790008A150130F8070318F90A0030F90778088C
:1037A0007307F6007408F5000318F50AF81FD92B03
:1037B000F5037508F700770883120313FF007608F6
:1037C00084000A168A1500200A168A15003A031D7D
:1037D000EA2BEB2BAD2B0800FB01FC0176087704EC
:1037E0000319F32BF42B2B2CFD01FD0A022C0130C5
:1037F0000310F60DF70DFF3E031DF82B0130FA0004
:103800007A08FD07F71F052C062CF72B0130031053
:10381000FB0DFC0DFF3E031D072C77087902031DED
:10382000132C76087802031C162C172C1E2C7608F5
:10383000F8027708031CF903F9027B140130031026
:10384000F70CF60CFF3E031D1F2C0130FD02031D7B
:103850002A2C2B2C062C7C08F7007B08F60008008D
:1038600000307005F80000307105F90080307205F5
:10387000FA007F307305FB007B087A047904780432
:10388000031D432C442C4C2C0030F3000030F2007C
:103890000030F1000030F00000307405F800003016
:1038A0007505F90080307605FA007F307705FB005A
:1038B0007B087A0479047804031D5F2C602C682C43
:1038C0000030F7000030F6000030F5000030F40062
:1038D00077087306031D762C76087206031D762C76
:1038E00075087106031D762C740870060319792C6F
:1038F0007A2C7C2C03107D2C0314080073087204AE
:10390000710470040319852C862CC92CF901F90A5D
:10391000962C0130F8000310F00DF10DF20DF30DAF
:10392000F80B8B2C0130F8007808F907F31F992C5D
:103930009A2C892C73087702031DA82C7208760232
:10394000031DA82C71087502031DA82C70087402B1
:10395000031CAB2CAC2CBA2C7008F4027108031CAD
:10396000710FF5027208031C720FF6027308031C34
:10397000730FF70201300310F30CF20CF10CF00C92
:10398000FF3E031DBB2C0130F902031DC82CC92CBE
:103990009A2C7708F3007608F2007508F100740895
:1039A000F000080083160317DC01DD01032D8316E8
:1039B00003175C085707DA005808D9000318D90A1A
:1039C000DC1FE32CD903831603175908DB005B08BF
:1039D00083120313FF00831603175A08840083120F
:1039E00003130A168A1500200A168A150A168A1564
:1039F00085220A168A15013083160317DC0703187F
:103A0000DD0A0030DD075C085707DA005808D900E6
:103A10000318D90ADC1F0D2DD90383160317590883
:103A2000DB005B0883120313FF00831603175A0899
:103A30008400831203130A168A1500200A168A15B9
:103A4000003A031D242D252DD72C0800F601F31F65
:103A50002A2D2B2D322DF209F309F20A0319F30A4C
:103A6000F601F60AF11F352D362D3B2DF009F1092F
:103A7000F00A0319F10A700871040319402D412D51
:103A8000702DF501F50A4F2D01300310F00DF10DE9
:103A9000FF3E031D452D0130F4007408F507F11FAA
:103AA000522D532D442D71087302031D592D70089A
:103AB0007202031C5C2D5D2D632D7008F2027108EB
:103AC000031CF303F30201300310F10CF00CFF3E72
:103AD000031D642D0130F502031D6F2D702D532D34
:103AE00076080319742D752D7A2DF209F309F20A5F
:103AF0000319F30A7308F1007208F000080000309F
:103B0000FC000030FB000030FA000030F9007308C0
:103B100072047104700403198E2D8F2DDC2DFD01AC
:103B2000FD0A9F2D0130F8000310F00DF10DF20D8C
:103B3000F30DF80B942D0130F8007808FD07F31F02
:103B4000A22DA32D922D0130F8000310F90DFA0DCE
:103B5000FB0DFC0DF80BA52D73087702031DBA2D84
:103B600072087602031DBA2D71087502031DBA2D65
:103B700070087402031CBD2DBE2DCD2D7008F402FB
:103B80007108031C710FF5027208031C720FF60214
:103B90007308031C730FF702791401300310F30C40
:103BA000F20CF10CF00CFF3E031DCE2D0130FD0296
:103BB000031DDB2DDC2DA32D7C08F3007B08F20018
:103BC0007A08F1007908F000080083120313A101BC
:103BD000F81FEB2DEC2DF32DF709F809F70A03195F
:103BE000F80AA101A10AFA1FF62DF72D002EF909F6
:103BF000FA09F90A0319FA0A0130FB007B08A10649
:103C0000A201A301770878040319072E082E3F2E7E
:103C1000A001A00A162E01300310F70DF80DFF3E8B
:103C2000031D0C2E0130FB007B08A007F81F192E86
:103C30001A2E0B2E01300310A20DA30DFF3E031D03
:103C40001B2E78087A02031D272E77087902031CA1
:103C50002A2E2B2E322E7708F9027808031CFA033D
:103C6000FA02221401300310F80CF70CFF3E031D7A
:103C7000332E0130A002031D3E2E3F2E1A2E2108A6
:103C80000319432E442E492EA209A309A20A03199F
:103C9000A30A2308F8002208F7000800033083165F
:103CA0000317DA000830D9007630D800D80B562E2A
:103CB000D90B562EDA0B562E000000300A168A1544
:103CC00010220A168A15413083160317D900ED30E9
:103CD000D800D80B692ED90B692E6E2E30300A16FB
:103CE0008A15BD220A168A15133083160317D900C8
:103CF0002C30D800D80B7A2ED90B7A2E0000303019
:103D00000A168A15BD220A168A15843083160317EF
:103D1000D800D80B892E000030300A168A15BD2233
:103D20000A168A15843083160317D800D80B962EEE
:103D3000000038300A168A15BD220A168A1510307E
:103D40000A168A15BD220A168A1501300A168A1526
:103D5000BD220A168A1506300A168A15BD220A16D1
:103D60008A150C300A168A15BD220A168A15080013
:103D700000307005F80000307105F90080307205E0
:103D8000FA007F307305FB007B087A04790478041D
:103D9000031DCB2ECC2ED42E0030F3000030F200C9
:103DA0000030F1000030F00000307405F800003001
:103DB0007505F90080307605FA007F307705FB0045
:103DC0007B087A0479047804031DE72EE82EF02E90
:103DD0000030F7000030F6000030F5000030F4004D
:103DE000F31FF32EF42E182F0030F8000030F900E6
:103DF0000030FA008030FB007008F8027108031CE4
:103E0000710F032F042FF9027208031C720F092F80
:103E10000A2FFA027308031C730F0F2F102FFB02D7
:103E20007B08F3007A08F2007908F1007808F000C6
:103E3000F71F1B2F1C2F402F0030F8000030F90017
:103E40000030FA008030FB007408F8027508031C8B
:103E5000750F2B2F2C2FF9027608031C760F312FAC
:103E6000322FFA027708031C770F372F382FFB0207
:103E70007B08F7007A08F6007908F5007808F40066
:103E80008030F3068030F70677087302031D522F47
:103E900076087202031D522F75087102031D522FFE
:103EA000740870020318552F562F582F0310592FDE
:103EB000031408000A168A15A1220A168A150A1682
:103EC0008A153D220A168A1583160317900191015F
:103ED0000A168A154E260A168A150A128A11F02722
:103EE0000A168A1583160317D801D80A01300A1654
:103EF0008A154A230A168A15963083160317D700A7
:103F00008030D8000A168A15D2240A168A1508307D
:103F100083160317DE005E08D80001300A168A15E2
:103F20004A230A168A159A3083160317D700803061
:103F3000D8000A168A15D2240A168A150D3083165F
:103F40000317DE005E08D80001300A168A154A23DE
:103F50000A168A159E3083160317D7008030D800C2
:103F60000A168A15D2240A168A1583160317100812
:103F70001104031DBC2FBD2F722F013090000030A3
:103F8000910012081304031DC62FC72FDD2F003028
:103F9000D400D5000A168A156A220A168A151A3024
:103FA00083160317DF00F730DE00DE0BD52FDF0BA3
:103FB000D52FDA2F831203139F14831603171203CE
:103FC0001304031DE42FE52F722F0130D4000030BD
:103FD000D5000A168A156A220A168A151A3083161F
:103FE0000317DF00F730DE00DE0BF42FDF0BF42FBA
:103FF000F92F831203139F14722F0A128A111628A5
:04400E00D423FF3F79
:00000001FF
