:020000040000FA
:060000000A128A110C280F
:10000800FE00030EF1000A08F2000A128A111829EC
:100018000A128A110F28F801F901FA018312031351
:10002800A501A601A70183010A128A111B280A1239
:100038008A1194210A128A110A128A11F5210A12C8
:100048008A1183120313A501A6010A128A11AE2090
:100058000A128A110A128A111A220A128A11F7013F
:10006800F70A01300A128A116E210A128A11013028
:100078000A128A1145210A128A11083083120313C1
:10008800A3002308F70001300A128A116E210A1210
:100098008A1105300A128A1145210A128A110D3077
:1000A80083120313A3002308F70001300A128A11F0
:1000B8006E210A128A1109300A128A1145210A1280
:1000C8008A118312031325082604031D6C286D2842
:1000D80033280130A5000030A60078087904031DF4
:1000E800762877288D280030F300F4000A128A1148
:1000F800C8210A128A111A3083120313A400F73098
:10010800A300A30B8528A40B85288A288312031330
:100118009F1478037904031D92289328332801300B
:10012800F3000030F4000A128A11C8210A128A1159
:100138001A3083120313A400F730A300A30BA228DC
:10014800A40BA228A728831203139F1433280A128A
:100158008A110C28033083120313A2000830A1006F
:100168007630A000A00BB628A10BB628A20BB628A3
:10017800000000300A128A1127220A128A1141301F
:1001880083120313A100ED30A000A00BC928A10B16
:10019800C928CE2830300A128A11AE210A128A11D3
:1001A800133083120313A1002C30A000A00BDA280F
:1001B800A10BDA28000030300A128A11AE210A1287
:1001C8008A11843083120313A000A00BE9280000D1
:1001D80030300A128A11AE210A128A118430831231
:1001E8000313A000A00BF628000038300A128A1169
:1001F800AE210A128A1110300A128A11AE210A128F
:100208008A1101300A128A11AE210A128A110630A7
:100218000A128A11AE210A128A110C300A128A11A6
:10022800AE210A128A110800831203130C1F1D291C
:100238001E293D2978087904031D232924292F29FB
:100248001E08F0007008FA00A501A6010130F800A8
:100258000030F9003D2978037904031D3429352934
:100268003D291E08F0007008A700A501A601F801A5
:10027800F9010C1372088A00710E8300FE0E7E0EBF
:10028800090083120313A200A001A101602920081C
:10029800220784000A128A1108220A128A110A12F5
:1002A8008A11DF210A128A11013083120313A00771
:1002B8000318A10A0030A1072008220784000A12A7
:1002C8008A1108220A128A11003A031D6C296D2925
:1002D8004B29080083120313A1002103031D75296C
:1002E8007629822977087F3EA0002008A2002208EC
:1002F8000A128A11AE210A128A11932902302106A4
:10030800031D8729882993297708BF3EA000200864
:10031800A20022080A128A11AE210A128A110800C4
:100328008B170B1783160317880189010814881483
:100338008316031387018601880189018501051445
:100348008514831203138801860187018901F80146
:10035800F9010800F60083120313091076080A123F
:100368008A1127220A128A118312031389140B3067
:10037800F5006230F400F40BBF29F50BBF2900002B
:10038800831203138910080073087404031DCD2910
:10039800CE29D229C330831203139F057303740433
:1003A800031DD729D829DE29831203131F08C3394F
:1003B80004389F000800F500831203130914750818
:1003C8000A128A1127220A128A1183120313891426
:1003D8001A30F400F40BEE2900008312031389107D
:1003E8000800831203131F179F13831603139F011B
:1003F800C330831203139F051F14831603130C17AE
:10040800831203130C13080002308A000408840ABC
:1004180082070034533431343A340034533432349C
:100428003A340034533433343A34003400300A1246
:100438008A11AE210A128A1101300A128A11AE21DC
:100448000A128A110800F300730883120313880044
:0204580008009A
:04400E00D423FF3F79
:00000001FF
