:020000040000FA
:060000000A128A11FC2F18
:100F1E000A128A11A3270A128A1183120313061CBE
:100F2E00992F9A2F942F0A128A11C7270A128A1103
:100F3E00942F0A128A11002883160317880189013B
:100F4E00831603138501831203138501073083165D
:100F5E00031386008312031386018316031387017E
:100F6E00831203138701831603138801831203135D
:100F7E008801831603138901831203138901080064
:100F8E008312031309140630F2001330F100AD3052
:100F9E00F000F00BD02FF10BD02FF20BD02FD72F5C
:100FAE0083120313091089140630F2001330F10076
:100FBE00AD30F000F00BE12FF10BE12FF20BE12F32
:100FCE00E82F83120313891009150330F20008303D
:100FDE00F1007730F000F00BF22FF10BF22FF20B45
:100FEE00F22F831203130911080083010A128A11CA
:020FFE008F2F33
:04400E00F720FF3F59
:00000001FF
