:020000040000FA
:060000000A128A11FA2F1A
:100DBE008316031788018901831603138501831295
:100DCE000313850107308316031386008312031362
:100DDE00860183160313870183120313870183167B
:100DEE0003138801831203138801831603138901E9
:100DFE0083120313890108008312031309140630AA
:100E0E00F2001330F100AD30F000F00B0C2FF10BAF
:100E1E000C2FF20B0C2F132F8312031309108914AE
:100E2E000630F2001330F100AD30F000F00B1D2F44
:100E3E00F10B1D2FF20B1D2F242F8312031389107C
:100E4E00091508000A128A11DF260A128A11831266
:100E5E000313061C332F342F392F0A128A1103273E
:100E6E000A128A118312031309193E2F402F0130E3
:100E7E00412F0030F30005080139F400050C01394B
:100E8E00740403194B2F4D2F01304E2F0030730574
:100E9E0000380319532F542F2E2F8618572F592FE2
:100EAE0001305A2F0030F300070803195F2F612F0E
:100EBE000130622F0030730500380319672F682F39
:100ECE00792F0530F5000F30F400F130F300F30BFD
:100EDE006E2FF40B6E2FF50B6E2F01308312031352
:100EEE0087009F2F0708031D7D2F7F2F0130802F36
:100EFE000030F3008618842F862F0130872F0030A4
:100F0E007305003803198C2F8D2F9F2F0530F50098
:100F1E000F30F400F130F300F30B932FF40B932FFB
:100F2E00F50B932F831203130708F3007307870043
:100F3E000619A22FA42F0130A52F0030F3000808A8
:100F4E000319AA2FAC2F0130AD2F003073050038D6
:100F5E000319B22FB32FC42F0530F5000F30F40054
:100F6E00F130F300F30BB92FF40BB92FF50BB92FAA
:100F7E000130831203138800EA2F0808031DC82FBF
:100F8E00CA2F0130CB2F0030F3000619CF2FD12FEF
:100F9E000130D22F0030730500380319D72FD82F08
:100FAE00EA2F0530F5000F30F400F130F300F30BAB
:100FBE00DE2FF40BDE2FF50BDE2F83120313080842
:100FCE00F30073078800871FED2FEE2FF02F851487
:100FDE002E2F881FF32FF42FF62F05142E2F2E2FC2
:100FEE000A128A110028F601F70183010A128A11EA
:020FFE00292F99
:04400E00F120FF3F5F
:00000001FF
