:020000040000FA
:060000000A128A11FC2F18
:100F560083160317880189018316031306100800F8
:100F66000A128A11AB270A128A1183120313061C6E
:100F7600BD2FBE2FB82F0A128A11C7270A128A114F
:100F8600B82F0A128A110028831203130914063097
:100F9600F2001330F100AD30F000F00BD02FF10B62
:100FA600D02FF20BD02FD72F8312031309108914D9
:100FB6000630F2001330F100AD30F000F00BE12FF7
:100FC600F10BE12FF20BE12FE82F831203138910A7
:100FD60009150330F2000830F1007730F000F00B0D
:100FE600F22FF10BF22FF20BF22F831203130911DA
:0A0FF600080083010A128A11B32FCC
:04400E00F720FF3F59
:00000001FF
