:020000040000FA
:060000000A128A110C280F
:10000800FE00030EF1000A08F2000A128A111528F0
:100018000A128A110F28F501F60183010A128A11C2
:100028003D280B1C182819282B2883120313861C1B
:100038001E281F2824280130F000700888072A2865
:10004800061C272828282A28013088020B1083122A
:1000580003130C1F3028312836281E088700F501A5
:10006800F6010C1372088A00710E8300FE0E7E0ED4
:1000780009000A128A1161200A128A110A128A11C9
:100088007B200A128A1175087604031D4C284D2816
:1000980047281A30F400F830F300F30B5128F40B1A
:1000A80051280000831203139F140130F50000301B
:1000B800F60047280A128A110C288B170B178B1584
:1000C800831603178801890108148316031387010F
:1000D800860106148614033096008801890185017B
:1000E800051483120313880186018701080083120F
:1000F80003131F179F13831603139F01C330831223
:1001080003139F051F14831603130C17831203137D
:040118000C130800BC
:04400E00D223FF3F7B
:00000001FF
