:020000040000FA
:060000000A128A110E280D
:10000800FE00030EF1000408F2000A08F3000A12C9
:100018008A1126280A128A11112883132C30FD0010
:100028000130FE00D530FF00203084000A128A110A
:10003800A6210A128A11B601B701F90183010A1231
:100048008A117D280B1C29282A283C28831203138F
:10005800861C2F28302835280130F00070088807C2
:100068003B28061C382839283B28013088020B1009
:10007800831203130C1F4128422847281E088700B3
:10008800B601B7010C130B1D4A284B2874287908B0
:10009800031D4F28502859288701091489102A0858
:1000A800203E84008313000887007903031D5D2820
:1000B8005E2867288701891409102B08203E8400D0
:1000C8008313000887000130F0007008F907023038
:1000D8007906031D702871287428F9010B11810114
:1000E80073088A0072088400710E8300FE0E7E0E6B
:1000F80009000A128A1187210A128A110A128A1122
:10010800B5210A128A1183120313B601B7018910A7
:1001180009100A128A11C8210A128A1183120313BC
:10012800B401B50136083704031D9B289C28AE2866
:100138001A3083120313B300F730B200B20BA228AF
:10014800B30BA228A728831203139F140130B6000B
:100158000030B700343083120313B300F130B2001B
:10016800B20BB428B30BB428831203133508B000BC
:100178003408AF000A128A1151210A128A1101307B
:1001880083120313B4070318B50A0030B50796287D
:100198000A128A110E2883120313AC01AD017408E8
:1001A80075040319D828D9281029AE01AE0AE72802
:1001B80001300310F40DF50DFF3E031DDD2801305D
:1001C800F8007808AE07F51FEA28EB28DC2801308C
:1001D8000310AC0DAD0DFF3E031DEC28750877022A
:1001E800031DF82874087602031CFB28FC28032941
:1001F8007408F6027508031CF703F7022C14013083
:100208000310F50CF40CFF3E031D04290130AE0267
:10021800031D0F291029EB282D08F5002C08F400E0
:1002280008007408750403191A291B294C2983121C
:100238000313AC01AC0A2B2901300310F40DF50DA2
:10024800FF3E031D21290130F8007808AC07F51F8F
:100258002E292F29202975087702031D35297408AE
:100268007602031C382939293F297408F6027508D3
:10027800031CF703F70201300310F50CF40CFF3EE2
:10028800031D40290130AC02031D4B294C292F299D
:100298007708F5007608F40008000030831203138D
:1002A8003002643003192F0203185B295C29862960
:1002B8000A30F4000030F5003008F7002F08F60087
:1002C8000A128A11CF200A128A11740883120313A2
:1002D800B1003108AA000A30F4000030F5003008F7
:1002E800F7002F08F6000A128A1115210A128A113E
:1002F800750883120313B0007408AF002F08B1000B
:100308003108AB0008008B170B178B1583160317E2
:1003180088018901081483160313870186010614CE
:10032800861403309600880189018501051483121B
:100338000313880186018701890108007E088A0065
:100348007F0882000A128A11A2210A128A118000EB
:10035800840A04087D0603190034FF0A0319FE0AFB
:10036800A629831203131F179F13831603139F01D4
:10037800C330831203139F051F14831603130C172E
:10038800831203130C1308008B16831603138111B1
:1003980081120117011081100115831203138101C5
:1003A80008003F3406345B344F3466346D347D3492
:0A03B80007347F346F34053403343A
:04400E00D223FF3F7B
:00000001FF
