:020000040000FA
:060000000A128A110C280F
:10000800FE00030EF5000A08F6000A128A114928B4
:100018000A128A110F28F001F101F201F30183019C
:100028000A128A1117280A128A1166200A128A11DE
:100038007308803AFF0080307F02031D25280630B0
:100048007202031C28282928302801308312031340
:100058008802F201F3011C287108803AFF00803001
:100068007F02031D392806307002031C3C283D28F6
:100078001C280130F7007708831203138807F00162
:10008800F1011C280A128A110C280B1C4C284D2837
:100098005F2883120313861C5228532858280130DE
:1000A800F400740888075E28061C5B285C285E2814
:1000B800013088020B1076088A00750E8300FE0E48
:1000C8007E0E09008B170B178B15831603178801F3
:1000D80089018316031387018601061486140330E9
:1000E800960088018901850105148312031388018C
:0600F800860187010800EB
:04400E00D223FF3F7B
:00000001FF
