:020000040000FA
:060000000A128A110C280F
:10000800FE00030EF4000A08F5000A128A114E28B1
:100018000A128A110F28F001F101F201F30183019C
:100028000A128A1117280A128A1180200A128A11C4
:100038000A128A1171200A128A117308803AFF0085
:1000480080307F02031D2A2806307202031C2D28E7
:100058002E2837280130F600760883120313880704
:10006800F201F30121287108803AFF0080307F02F5
:10007800031D402806307002031C43284428212809
:100088000130831203138802F001F10121280A12BA
:100098008A110C280B1D512852286A288312031331
:1000A8008618572858285F280130F0070318F10AE6
:1000B8000030F1076928061862286328692801308A
:1000C800F2070318F30A0030F3070B1175088A00CA
:1000D800740E8300FE0E7E0E09008316031381172B
:1000E80087010330860088018901051483120313F0
:1000F80088018601870108008B178B168316031366
:10010800811181120113011081100115831203134B
:040118008101080059
:04400E00F220FF3F5E
:00000001FF
