:020000040000FA
:060000000A128A110C280F
:10000800FE00030EF5000A08F6000A128A111728E6
:100018000A128A110F28F001F101F201F30183019C
:100028000A128A1160280B1C1A281B282D288312F3
:100038000313861C2028212826280130F400740880
:1000480088072C28061C29282A282C2801308802F1
:100058000B1076088A00750E8300FE0E7E0E0900CE
:100068008B170B178B1583160317880189018316C5
:10007800031387018601061486140330960088014D
:1000880089018501051483120313880186018701FC
:100098000800831203131F179F13831603139F016E
:1000A800C330831203139F051F14831603130C1701
:1000B800831203130C1308000A128A1134200A123F
:1000C8008A110A128A114D200A128A116A280A1204
:0400D8008A110C2855
:04400E00D223FF3F7B
:00000001FF
