:020000040000FA
:060000000A128A110C280F
:10000800FE00030EF1000A08F2000A128A113E28C7
:100018000A128A110F28F501F601F701F801830188
:100028000A128A1117280A128A115B200A128A11E9
:100038000A128A1175200A128A111A30F400F8304F
:10004800F300F30B2528F40B252800008312031373
:100058009F149F18302831282D281E08F300F4011A
:100068007308F7007408F8007708870021280A1237
:100078008A110C280B1C4128422853288312031389
:10008800861C472848284D280130F000700888074A
:100098005328061C502851285328013088020B1079
:1000A80072088A00710E8300FE0E7E0E09008B17FF
:1000B8000B178B15831603178801890108148316FB
:1000C80003138701860106148614033096008801FD
:1000D80089018501051483120313880186018701AC
:1000E8000800831203131F179F13831603139F011E
:1000F800C330831203139F051F14831603130C17B1
:08010800831203130C1308001D
:04400E00D223FF3F7B
:00000001FF
